{
  "transactions": [
    {
      "hash": "0x4ef57b3425ee3a3b2f4817dfcd5b0017f07e31645705fc277695e920e36e9dc1",
      "transactionType": "CREATE",
      "contractName": "POLAccumulator",
      "contractAddress": "0x17215f0dfa5e97c33c025e0560eeddffad87b7ca",
      "function": null,
      "arguments": [
        "0x420698CFdEDdEa6bc78D59bC17798113ad278F9D",
        "0x7a250d5630B4cF539739dF2C5dAcb4c659F2488D",
        "0x6682Ac593513cc0A6c25D0F3588e8fA4FF81104D",
        "0xE9B7aB8e367bE5AC0e0c865136f1907bd73df53e"
      ],
      "transaction": {
        "from": "0xaa0cab9826f714a7be8fac8fc98e87fc27a54512",
        "gas": "0x305e6c",
        "value": "0x0",
        "input": "0x61010080604052346101f157608081612b90803803809161002082856102eb565b8339810103126101f15761003381610322565b9061004060208201610322565b91610059606061005260408501610322565b9301610322565b9033156102d857600180546001600160a01b03199081169091555f805433928116831782556001600160a01b0316907f8be0079c531659141344cd1fd0a4f28419497f9722a3daafe3b4186f6b6457e09080a360017f9b779b17422d0df92223018b32b4d1fa46e071723d6817e2486d003becc55f00556101f4600355612328600455678ac7230489e800006005556001600160a01b03169283156102a5576001600160a01b0316908115610272576001600160a01b0383161561023d576001600160a01b0316928315610208576004916020916080528060a052604051928380926315ab88c960e31b82525afa9081156101fd575f916101bf575b5060c05260e052600e80546001600160a01b0319169190911790556040516128599081610337823960805181818161036a0152611b92015260a0518181816107750152611bec015260c0518181816119ea0152611b6b015260e0518181816107dc015261186d0152f35b90506020813d6020116101f5575b816101da602093836102eb565b810103126101f1576101eb90610322565b5f610155565b5f80fd5b3d91506101cd565b6040513d5f823e3d90fd5b60405162461bcd60e51b815260206004820152600d60248201526c5a45524f5f545245415355525960981b6044820152606490fd5b60405162461bcd60e51b815260206004820152600d60248201526c2d22a927afa6282faa27a5a2a760991b6044820152606490fd5b60405162461bcd60e51b815260206004820152600b60248201526a2d22a927afa927aaaa22a960a91b6044820152606490fd5b60405162461bcd60e51b815260206004820152600b60248201526a5a45524f5f544f57454c4960a81b6044820152606490fd5b631e4fbdf760e01b5f525f60045260245ffd5b601f909101601f19168101906001600160401b0382119082101761030e57604052565b634e487b7160e01b5f52604160045260245ffd5b51906001600160a01b03821682036101f15756fe6080806040526004361015610048575b50361561001a575f80fd5b6040513481527fbfe611b001dfcd411432f7bf0d79b82b4b2ee81511edac123a3403c357fb972a60203392a2005b5f3560e01c9081622c8be71461243f575080630645dc86146124245780630733ff71146122a25780630f4ad13f1461227b57806311a04d0c146121255780631265f6f514612108578063160063eb14610d925780631c134f6f146118c15780632511ab3d1461206357806325edcfc514610e6257806327aa5db814611aaf5780632ed6b75d14611a875780633f4ba83a14611a195780633fc8cef3146119d5578063429a2493146119ae578063521e6ffe146119005780635422b49e146118e357806354d25faf146118c65780635be0a5bb146118c15780635c975abb1461189c5780635fcbd2851461185857806361d027b31461183057806362ae32b3146116fd57806364a8177f146115e957806369d0e926146115ab5780636a7768cb146114355780636caaeac2146114185780636f0e530f146113fd578063711ab91c146113e1578063715018a61461139857806375d12222146109d157806379ba50971461131857806379d12755146112fb578063844dac81146112de5780638456cb591461127d5780638da5cb5b1461125657806394115f7f14611028578063970b90b41461100b5780639881f59f14610fcd5780639d6125d414610f8f5780639e5a590614610e675780639f81aed714610e62578063a6893235146109d1578063a8e2a54914610e45578063a97c014714610d97578063ac2a4dc214610d92578063ad2f824414610d92578063afe21ffc14610d6b578063b03f5e9014610d3f578063b3165ed214610c64578063b666871a14610c47578063c4aa739514610c2a578063c50fac9414610c0e578063d135bfe814610bd0578063d47f687714610b83578063d9553cc714610b5c578063d9e8437b14610a28578063e30c397814610a00578063e5feee33146109d1578063e92929d8146109d6578063ec01e7c7146109d1578063edf7a73c146109ae578063f2fde38b1461093b578063f5f6d3af146107a4578063f887ea4014610760578063fb3783e114610692578063fd818c2e1461066b578063fe1140a3146104f7578063fe60fdf51461039d5763ff5f350b14610355575f61000f565b34610399575f366003190112610399576040517f00000000000000000000000000000000000000000000000000000000000000006001600160a01b03168152602090f35b5f80fd5b34610399576020366003190112610399576004356103b961250e565b6064811080156104ec575b6104dd57600d8190555f805160206127e48339815191525f5260026020525f80516020612804833981519152546104bd576201518042018042116104a9575f805160206127e48339815191525f5260026020525f8051602061280483398151915281905562093a808101918282116104a9575f805160206127e48339815191525f80516020612664833981519152604080947f8fd9d6553c1924c0b5851d1b33e066a715794500dc33eee9e2be0afddb08832e9682519182526020820152a25f805160206127e48339815191525f526002602052815f205482519182526020820152a1005b634e487b7160e01b5f52601160045260245ffd5b6372edd08b60e11b5f525f805160206127e483398151915260045260245ffd5b6302ad4ecd60e21b5f5260045ffd5b506103e881116103c4565b34610399576020366003190112610399576004356001600160a01b038116908190036103995761052561250e565b801561063757600780546001600160a01b031916821790555f805160206127248339815191525f5260026020525f8051602061270483398151915254610617576202a30042018042116104a9575f805160206127248339815191525f5260026020525f8051602061270483398151915281905562093a808101908181116104a95760405f80516020612664833981519152915f805160206127248339815191529382519182526020820152a25f805160206127248339815191525f5260026020527f2fdb8aa18e3708b0dfed4acb0de7452e85e7f833b1b055880cef38e8bee690b5602060405f2054604051908152a2005b6372edd08b60e11b5f525f8051602061272483398151915260045260245ffd5b60405162461bcd60e51b815260206004820152600c60248201526b5a45524f5f4144445245535360a01b6044820152606490fd5b34610399575f3660031901126103995760206040515f805160206127e48339815191528152f35b34610399575f366003190112610399576106aa61250e565b6006545f805160206127a48339815191525f5260026020525f8051602061276483398151915254156107405760207f827d2f8aa21a7f6414617474812f21df3a91df8df0d273f2318d2220a04bcf8b915f805160206127a48339815191525f52600282525f60408120555f805160206127a48339815191525f805160206127848339815191525f80a25f600655604051908152a1005b6309063c1b60e31b5f525f805160206127a483398151915260045260245ffd5b34610399575f366003190112610399576040517f00000000000000000000000000000000000000000000000000000000000000006001600160a01b03168152602090f35b34610399576020366003190112610399576004356001600160a01b03811690819003610399576107d261250e565b6107da612521565b7f00000000000000000000000000000000000000000000000000000000000000006001600160a01b03168114610904576040516370a0823160e01b8152306004820152602081602481855afa9081156108f9575f916108c7575b508061084e575b60015f805160206127c483398151915255005b60018060a01b03600e5416906040519163a9059cbb60e01b5f5260045260245260205f60448180865af19060015f51148216156108a6575b60405215610894578061083b565b635274afe760e01b5f5260045260245ffd5b9060018115166108be57823b15153d15161690610886565b503d5f823e3d90fd5b90506020813d6020116108f1575b816108e2602093836124d9565b81010312610399575182610834565b3d91506108d5565b6040513d5f823e3d90fd5b60405162461bcd60e51b815260206004820152600f60248201526e043414e4e4f545f53574545505f4c5608c1b6044820152606490fd5b34610399576020366003190112610399576004356001600160a01b038116908190036103995761096961250e565b600180546001600160a01b031916821790555f80546001600160a01b0316907f38d16b8cac22d99fc7c124b9cd0de2d3fa1faef420bfe791d8c362d765e227009080a3005b34610399575f36600319011261039957602060405168056bc75e2d631000008152f35b6124af565b34610399576020366003190112610399576004355f526002602052602060405f2054604051908152f35b34610399575f366003190112610399576001546040516001600160a01b039091168152602090f35b34610399575f36600319011261039957610a4061250e565b5f805160206126848339815191525f5260026020525f80516020612744833981519152548015610b3c57804210610b1c5762093a8081018091116104a9574211610afc575f805160206126848339815191525f5260026020525f60408120555f805160206126848339815191525f805160206126a48339815191525f80a27f527e70286d425d408cfaace973849b0893e304942bb4331d2219380e285dc3e66040600454600c54806004555f600c5582519182526020820152a1005b632c7cc00360e11b5f525f8051602061268483398151915260045260245ffd5b639637bf9f60e01b5f525f8051602061268483398151915260045260245ffd5b6309063c1b60e31b5f525f8051602061268483398151915260045260245ffd5b34610399575f3660031901126103995760206040515f805160206126e48339815191528152f35b34610399575f3660031901126103995760405162461bcd60e51b81526020600482015260156024820152745573652070726f706f73655377656570455448282960581b6044820152606490fd5b34610399575f366003190112610399575f805160206126848339815191525f52600260209081525f8051602061274483398151915254604051908152f35b34610399575f3660031901126103995760206040516126ac8152f35b34610399575f366003190112610399576020600354604051908152f35b34610399575f366003190112610399576020600454604051908152f35b34610399575f36600319011261039957610c7c61250e565b5f805160206127248339815191525f5260026020525f805160206127048339815191525415610d1f575f805160206127248339815191525f5260026020525f60408120555f805160206127248339815191525f805160206127848339815191525f80a26007546001600160a01b0381167f126edc9f10a40adff641028274713504fd84689745c30ee6ce1a196cc5259bc15f80a26001600160a01b031916600755005b6309063c1b60e31b5f525f8051602061272483398151915260045260245ffd5b34610399576020366003190112610399576004355f526002602052602060405f20541515604051908152f35b34610399575f3660031901126103995760206040515f805160206127248339815191528152f35b612459565b34610399575f36600319011261039957610daf61250e565b600c545f805160206126848339815191525f5260026020525f805160206127448339815191525415610b3c5760207fc84ebf93425c664ea1bb582e411a9110b00d01cd76925bdf73a857158d51d84a915f805160206126848339815191525f52600282525f60408120555f805160206126848339815191525f805160206127848339815191525f80a25f600c55604051908152a1005b34610399575f366003190112610399576020600b54604051908152f35b612493565b34610399575f36600319011261039957610e7f61250e565b5f805160206127248339815191525f5260026020525f80516020612704833981519152548015610d1f57804210610f6f5762093a8081018091116104a9574211610f4f575f805160206127248339815191525f5260026020525f60408120555f805160206127248339815191525f805160206126a48339815191525f80a2600e8054600780546001600160a01b03198084166001600160a01b03808416918217909655911690915591167f8c3aa5f43a388513435861bf27dfad7829cd248696fed367c62d441f629544965f80a3005b632c7cc00360e11b5f525f8051602061272483398151915260045260245ffd5b639637bf9f60e01b5f525f8051602061272483398151915260045260245ffd5b34610399575f366003190112610399575f805160206126e48339815191525f52600260209081525f805160206126c483398151915254604051908152f35b34610399575f366003190112610399575f805160206127e48339815191525f52600260209081525f8051602061280483398151915254604051908152f35b34610399575f366003190112610399576020600654604051908152f35b34610399575f3660031901126103995761104061250e565b611048612521565b5f805160206126e48339815191525f5260026020525f805160206126c4833981519152548015611236578042106112165762093a8081018091116104a95742116111f6575f805160206126e48339815191525f5260026020525f60408120555f805160206126e48339815191525f805160206126a48339815191525f80a2600f54478082116111ee575b5080156111c05760018060a01b03600e5416905f600f555f80808084865af13d156111bb573d67ffffffffffffffff81116111a7576040519061111f601f8201601f1916602001836124d9565b81525f60203d92013e5b1561116c5760207fe8cfdbc1f49813a9be27a36675b423b0d77c67345b86f0bee6cc587a4360a37a91604051908152a260015f805160206127c483398151915255005b60405162461bcd60e51b815260206004820152601360248201527211551217d514905394d1915497d19052531151606a1b6044820152606490fd5b634e487b7160e01b5f52604160045260245ffd5b611129565b60405162461bcd60e51b815260206004820152600660248201526509c9ebe8aa8960d31b6044820152606490fd5b9050816110d2565b632c7cc00360e11b5f525f805160206126e483398151915260045260245ffd5b639637bf9f60e01b5f525f805160206126e483398151915260045260245ffd5b6309063c1b60e31b5f525f805160206126e483398151915260045260245ffd5b34610399575f366003190112610399575f546040516001600160a01b039091168152602090f35b34610399575f3660031901126103995761129561250e565b61129d612559565b6001805460ff60a01b1916600160a01b1790556040513381527f62e78cea01bee320cd4e420270b5ea74000d11b0c9f74754ebdbfc544b05a25890602090a1005b34610399575f366003190112610399576020600f54604051908152f35b34610399575f366003190112610399576020600a54604051908152f35b34610399575f36600319011261039957600154336001600160a01b03821603611385576001600160a01b03199081166001555f805433928116831782556001600160a01b0316907f8be0079c531659141344cd1fd0a4f28419497f9722a3daafe3b4186f6b6457e09080a3005b63118cdaa760e01b5f523360045260245ffd5b34610399575f3660031901126103995760405162461bcd60e51b815260206004820152601160248201527014915393d55390d157d11254d050931151607a1b6044820152606490fd5b34610399575f3660031901126103995760206040516113888152f35b34610399575f36600319011261039957602060405160788152f35b34610399575f366003190112610399576020600554604051908152f35b346103995760203660031901126103995760043561145161250e565b6113888110611573576126ac811161156457600c8190555f805160206126848339815191525f5260026020525f8051602061274483398151915254611544576201518042018042116104a9575f805160206126848339815191525f5260026020525f8051602061274483398151915281905562093a808101918282116104a9575f805160206126848339815191525f80516020612664833981519152604080947fcf19308fa57168c6d2ae1e8b1c35e560182c64b04d9cfe524c26f425d3f8f4859682519182526020820152a25f805160206126848339815191525f526002602052815f205482519182526020820152a1005b6372edd08b60e11b5f525f8051602061268483398151915260045260245ffd5b6343a4456d60e11b5f5260045ffd5b60405162461bcd60e51b815260206004820152601060248201526f4241434b53544f505f544f4f5f4c4f5760801b6044820152606490fd5b34610399575f366003190112610399575f805160206127a48339815191525f52600260209081525f8051602061276483398151915254604051908152f35b34610399575f3660031901126103995761160161250e565b5f805160206127a48339815191525f5260026020525f80516020612764833981519152548015610740578042106116dd5762093a8081018091116104a95742116116bd575f805160206127a48339815191525f5260026020525f60408120555f805160206127a48339815191525f805160206126a48339815191525f80a27f440b61b720e1e0a31cea2e79c7c493870f9ecfc0ddf9bceb242b4bb659e97c5a6040600554600654806005555f60065582519182526020820152a1005b632c7cc00360e11b5f525f805160206127a483398151915260045260245ffd5b639637bf9f60e01b5f525f805160206127a483398151915260045260245ffd5b34610399575f3660031901126103995761171561250e565b5f805160206127e48339815191525f5260026020525f80516020612804833981519152548015611810578042106117f05762093a8081018091116104a95742116117d0575f805160206127e48339815191525f5260026020525f60408120555f805160206127e48339815191525f805160206126a48339815191525f80a27ed0adba8f44b48a2e609f42b3a1c04404a6d5bf30c24d7501cc72dd234069576040600354600d54806003555f600d5582519182526020820152a1005b632c7cc00360e11b5f525f805160206127e483398151915260045260245ffd5b639637bf9f60e01b5f525f805160206127e483398151915260045260245ffd5b6309063c1b60e31b5f525f805160206127e483398151915260045260245ffd5b34610399575f36600319011261039957600e546040516001600160a01b039091168152602090f35b34610399575f366003190112610399576040517f00000000000000000000000000000000000000000000000000000000000000006001600160a01b03168152602090f35b34610399575f36600319011261039957602060ff60015460a01c166040519015158152f35b612476565b34610399575f366003190112610399576020600854604051908152f35b34610399575f366003190112610399576020600c54604051908152f35b34610399575f3660031901126103995761191861250e565b600d545f805160206127e48339815191525f5260026020525f8051602061280483398151915254156118105760207f034a89adf6f97a4a85b9f683e48872f470d4aa21aef9fad35b55f19d27b7cd3f915f805160206127e48339815191525f52600282525f60408120555f805160206127e48339815191525f805160206127848339815191525f80a25f600d55604051908152a1005b34610399575f3660031901126103995760206040515f805160206126848339815191528152f35b34610399575f366003190112610399576040517f00000000000000000000000000000000000000000000000000000000000000006001600160a01b03168152602090f35b34610399575f36600319011261039957611a3161250e565b60015460ff8160a01c1615611a785760ff60a01b19166001556040513381527f5db9ee0a495bf2e6ff9c91a7834c1ba4fdd244a5e8aa4e537bd38aeae4b073aa90602090a1005b638dfc202b60e01b5f5260045ffd5b34610399575f366003190112610399576007546040516001600160a01b039091168152602090f35b3461039957608036600319011261039957604435606435602435600435611ad461250e565b611adc612521565b611ae4612559565b600954610e1081018091116104a957421061202857428310611ff957607842018042116104a9578311611fea578015611fdb574793662386f26fc100008510611fcc57600554808611611fc4575b508460011c9460609460405194611b4987876124d9565b600286526020860192601f198801368537865115611ef1576001600160a01b037f00000000000000000000000000000000000000000000000000000000000000008116855287517f000000000000000000000000000000000000000000000000000000000000000098918916959060011015611ef157604080830187905251637ff36ab560e01b81526004810198909852608060248901529051608488018190527f00000000000000000000000000000000000000000000000000000000000000006001600160a01b03169791829160a4830191905f5b818110611fa25750505090805f9230604483015287606483015203818d8b5af19081156108f9575f91611f05575b5080515f198101919082116104a9578051821015611ef15760209160051b01015190611c7b82888a612577565b15611ebf575b8981039081116104a957600354612710039361271085116104a95784612710611cb781611caf8e99886124fb565b0492856124fb565b04600454612710611cd481611ccc848a6124fb565b0492876124fb565b0492878111611eb7575b50868111611eaf575b50888111611ea7575b50878111611e9e575b509060c49291604051978895869463f305d71960e01b865289600487015260248601526044850152606484015230608484015260a4830152875af19283156108f9575f945f935f95611e5d575b508415611e2757611d585f8383612577565b15611dee575b505050611d76611d6e82876124cc565b6008546124cc565b600855611d8582600a546124cc565b600a55600b54905f1982146104a9577f0b63f2f18836b4ba3086776de3026a67090c4f51f455d92200ecf51877ce5ec9956001611dc99301600b55426009556124cc565b9160405192835260208301526040820152a160015f805160206127c483398151915255005b611df882826125c4565b15611e1457611e08915f91612628565b15610894578080611d5e565b82635274afe760e01b5f5260045260245ffd5b60405162461bcd60e51b815260206004820152600e60248201526d16915493d7d31417d3525395115160921b6044820152606490fd5b9550935091508484813d8311611e97575b611e7881836124d9565b8101031261039957835191604060208601519501519294929388611d46565b503d611e6e565b965060c4611cf9565b97508c611cf0565b95508d611ce7565b96508e611cde565b611ec987896125c4565b15611ede57611ed982888a612628565b611c81575b84635274afe760e01b5f5260045260245ffd5b634e487b7160e01b5f52603260045260245ffd5b90503d805f833e611f1681836124d9565b8101906020818303126103995780519067ffffffffffffffff821161039957019080601f830112156103995781519167ffffffffffffffff83116111a7578260051b906020820193611f6b60405195866124d9565b845260208085019282010192831161039957602001905b828210611f92575050508a611c4e565b8151815260209182019101611f82565b82516001600160a01b0316845285945060209384019390920191600101611c20565b945085611b32565b631a84bc4160e21b5f5260045ffd5b63428637bb60e11b5f5260045ffd5b6324787d7360e11b5f5260045ffd5b60405162461bcd60e51b81526020600482015260076024820152661156141254915160ca1b6044820152606490fd5b60405162461bcd60e51b815260206004820152601360248201527220a1a1aaa6aaa620aa22afa1a7a7a62227aba760691b6044820152606490fd5b34610399575f3660031901126103995761207b61250e565b5f805160206126e48339815191525f5260026020525f805160206126c48339815191525415611236575f805160206126e48339815191525f5260026020525f60408120555f805160206126e48339815191525f805160206127848339815191525f80a25f600f557f047b44c21db56f568700ade6bd8c734b2f71c3d8ad49983173d965eb324ca0bf5f80a1005b34610399575f366003190112610399576020600d54604051908152f35b346103995760203660031901126103995760043561214161250e565b801561224857600f8190555f805160206126e48339815191525f5260026020525f805160206126c483398151915254612228576202a30042018042116104a9575f805160206126e48339815191525f5260026020525f805160206126c483398151915281905562093a808101918282116104a9575f805160206126e48339815191525f80516020612664833981519152604080947feb71e6654ce678ac7bfe95f0a84f57522ee1007d29d9da978ab5f68f6fe215f39682519182526020820152a25f805160206126e48339815191525f526002602052815f205482519182526020820152a1005b6372edd08b60e11b5f525f805160206126e483398151915260045260245ffd5b60405162461bcd60e51b815260206004820152600b60248201526a16915493d7d05353d5539560aa1b6044820152606490fd5b34610399575f3660031901126103995760206040515f805160206127a48339815191528152f35b34610399576020366003190112610399576004356122be61250e565b662386f26fc1000081106124155768056bc75e2d6310000081116123dd5760068190555f805160206127a48339815191525f5260026020525f80516020612764833981519152546123bd576201518042018042116104a9575f805160206127a48339815191525f5260026020525f8051602061276483398151915281905562093a808101918282116104a9575f805160206127a48339815191525f80516020612664833981519152604080947f978be323d02052ff029e37759af839fbe618f78df944167b82ca5ab10079eb449682519182526020820152a25f805160206127a48339815191525f526002602052815f205482519182526020820152a1005b6372edd08b60e11b5f525f805160206127a483398151915260045260245ffd5b60405162461bcd60e51b815260206004820152601060248201526f0455843454544535f484152445f4341560841b6044820152606490fd5b63cb15bc6560e01b5f5260045ffd5b34610399575f36600319011261039957602047604051908152f35b34610399575f366003190112610399576020906009548152f35b34610399575f366003190112610399576020604051620151808152f35b34610399575f3660031901126103995760206040516202a3008152f35b34610399575f366003190112610399576020604051610e108152f35b34610399575f36600319011261039957602060405162093a808152f35b919082018092116104a957565b90601f8019910116810190811067ffffffffffffffff8211176111a757604052565b818102929181159184041417156104a957565b5f546001600160a01b0316330361138557565b60025f805160206127c4833981519152541461254a5760025f805160206127c483398151915255565b633ee5aeb560e01b5f5260045ffd5b60ff60015460a01c1661256857565b63d93c066560e01b5f5260045ffd5b92916040519163095ea7b360e01b5f5260018060a01b031660045260245260205f60448180875af19260015f51148416156125b3575b50604052565b3d15903b151516909216915f6125ad565b60405163095ea7b360e01b5f9081526001600160a01b03909316600452602483905290929160209060448180875af19260015f51148416156126065750604052565b6001849294151661261f573b15153d151616915f6125ad565b833d5f823e3d90fd5b92916040519163095ea7b360e01b5f5260018060a01b031660045260245260205f60448180875af19260015f5114841615612606575060405256fe7251e8fe7f0d4d38f252508cef8fb7b3b4e907bb3b7339106e305d0a06efd2486a66a90b436e4fb44a3cdf4968440c1e34d7e3d74f638b1d3cce8da9f8434c6b7b1bcf1ccf901a11589afff5504d59fd0a53780eed2a952adade0348985139e0947c18923b57fd6610bb959cb37329fdaead24f196cc7fd65ba4788050460ed8789c460a41cf152c353151b31a1e84168476235241900fb1eb052a53a51c533a2253d7a1f8406cbcde737f0ed2b2dc628b2a2d745e148f31d9fd645a2d4df71b86273ebbefb2092e32c5b513475d419ff181fe454356d658a8f0a5ef09393a34b3313ac53bc1e8221927bbca2225aba6bafeb3d6a54b91aa2f611fa5352ef320558f808cb61094472c3efbaf5ed041e5353ac41915d09d0d7a1e20e8301019497bf38ee614622e33a85c9c8b9f0dca88e471d781640cddbb75c90e2bdeb6e125f3d41bf6a6766515324d1144282f1a9646e5288962f5417d845cd1d575de49669b779b17422d0df92223018b32b4d1fa46e071723d6817e2486d003becc55f0050dbab8bbe1c4bdb7ee119c19f9420773889a4af2475388a2d285ba2a16b4dbc891ca150786e75776e3bf8ef154842f89931e896da5df4d917e199c884c4b58ba264697066735822122068ab70ffc4f9ef77a04af565a863dfe435f8add8c45527751afeff24c5ac1f7164736f6c634300081a0033000000000000000000000000420698cfdeddea6bc78d59bc17798113ad278f9d0000000000000000000000007a250d5630b4cf539739df2c5dacb4c659f2488d0000000000000000000000006682ac593513cc0a6c25d0f3588e8fa4ff81104d000000000000000000000000e9b7ab8e367be5ac0e0c865136f1907bd73df53e",
        "nonce": "0x25",
        "chainId": "0x1"
      },
      "additionalContracts": [],
      "isFixedGasLimit": false
    },
    {
      "hash": "0xc8326aeb0f55c11b48cd50476d4bb78ba36fb242ccf72907a344e2e95c7692ec",
      "transactionType": "CALL",
      "contractName": null,
      "contractAddress": "0x2ade96633ee51400e60de00f098280f07b92b060",
      "function": "setApprovedCaller(address,bool)",
      "arguments": [
        "0xd8f13c7F3e0C4139D1905914a99F2E9F77A4aD37",
        "true"
      ],
      "transaction": {
        "from": "0xaa0cab9826f714a7be8fac8fc98e87fc27a54512",
        "to": "0x2ade96633ee51400e60de00f098280f07b92b060",
        "gas": "0x10cdc",
        "value": "0x0",
        "input": "0x13957cfd000000000000000000000000d8f13c7f3e0c4139d1905914a99f2e9f77a4ad370000000000000000000000000000000000000000000000000000000000000001",
        "nonce": "0x26",
        "chainId": "0x1"
      },
      "additionalContracts": [],
      "isFixedGasLimit": false
    },
    {
      "hash": "0x0cfcbcdf180edcecb9ee4693d52c66e8cc67367fdec2a523184b9d114b06ecce",
      "transactionType": "CALL",
      "contractName": null,
      "contractAddress": "0x2ade96633ee51400e60de00f098280f07b92b060",
      "function": "completeSetup()",
      "arguments": [],
      "transaction": {
        "from": "0xaa0cab9826f714a7be8fac8fc98e87fc27a54512",
        "to": "0x2ade96633ee51400e60de00f098280f07b92b060",
        "gas": "0x10c9b",
        "value": "0x0",
        "input": "0x8aea8f71",
        "nonce": "0x27",
        "chainId": "0x1"
      },
      "additionalContracts": [],
      "isFixedGasLimit": false
    },
    {
      "hash": "0x3bc5066490a0e2339b37766c5b1b3d82b8486782aa7c7f15b33a249d75bbf0d7",
      "transactionType": "CALL",
      "contractName": null,
      "contractAddress": "0xf00964d5f5fb0a4d4afea0999843da31bbe9a7af",
      "function": "proposeRestakingChange(address)",
      "arguments": [
        "0xfE2E5B534cfc3b35773aA26A73beF16B028B0268"
      ],
      "transaction": {
        "from": "0xaa0cab9826f714a7be8fac8fc98e87fc27a54512",
        "to": "0xf00964d5f5fb0a4d4afea0999843da31bbe9a7af",
        "gas": "0x18506",
        "value": "0x0",
        "input": "0x5283879b000000000000000000000000fe2e5b534cfc3b35773aa26a73bef16b028b0268",
        "nonce": "0x28",
        "chainId": "0x1"
      },
      "additionalContracts": [],
      "isFixedGasLimit": false
    },
    {
      "hash": "0xa290f76a01fff43f42b2c8084a120755e56adfb8be55d96930d5ee24f619a6b7",
      "transactionType": "CALL",
      "contractName": null,
      "contractAddress": "0x626644523d34b84818df602c991b4a06789c4819",
      "function": "proposeRestakingContract(address)",
      "arguments": [
        "0xfE2E5B534cfc3b35773aA26A73beF16B028B0268"
      ],
      "transaction": {
        "from": "0xaa0cab9826f714a7be8fac8fc98e87fc27a54512",
        "to": "0x626644523d34b84818df602c991b4a06789c4819",
        "gas": "0x19052",
        "value": "0x0",
        "input": "0xf8161d69000000000000000000000000fe2e5b534cfc3b35773aa26a73bef16b028b0268",
        "nonce": "0x29",
        "chainId": "0x1"
      },
      "additionalContracts": [],
      "isFixedGasLimit": false
    },
    {
      "hash": "0x7c8f6c6d72ddbcdcd828ad63f969270f5bac1d2edb4c2d07c23990582077695a",
      "transactionType": "CALL",
      "contractName": null,
      "contractAddress": "0x626644523d34b84818df602c991b4a06789c4819",
      "function": "transferOwnership(address)",
      "arguments": [
        "0xE9B7aB8e367bE5AC0e0c865136f1907bd73df53e"
      ],
      "transaction": {
        "from": "0xaa0cab9826f714a7be8fac8fc98e87fc27a54512",
        "to": "0x626644523d34b84818df602c991b4a06789c4819",
        "gas": "0x11c49",
        "value": "0x0",
        "input": "0xf2fde38b000000000000000000000000e9b7ab8e367be5ac0e0c865136f1907bd73df53e",
        "nonce": "0x2a",
        "chainId": "0x1"
      },
      "additionalContracts": [],
      "isFixedGasLimit": false
    },
    {
      "hash": "0x127d4d8e8c36c259380fb7bae3c10890576e6a8bf1dad867e1f6a760bbd3b3c4",
      "transactionType": "CALL",
      "contractName": null,
      "contractAddress": "0xfe2e5b534cfc3b35773aa26a73bef16b028b0268",
      "function": "transferOwnership(address)",
      "arguments": [
        "0xE9B7aB8e367bE5AC0e0c865136f1907bd73df53e"
      ],
      "transaction": {
        "from": "0xaa0cab9826f714a7be8fac8fc98e87fc27a54512",
        "to": "0xfe2e5b534cfc3b35773aa26a73bef16b028b0268",
        "gas": "0x1079e",
        "value": "0x0",
        "input": "0xf2fde38b000000000000000000000000e9b7ab8e367be5ac0e0c865136f1907bd73df53e",
        "nonce": "0x2b",
        "chainId": "0x1"
      },
      "additionalContracts": [],
      "isFixedGasLimit": false
    },
    {
      "hash": "0x14232d0257b16a6342ad21b683a24e9ed3ef5b6bfffccaeec27f5a6e54d39d06",
      "transactionType": "CALL",
      "contractName": null,
      "contractAddress": "0x2ade96633ee51400e60de00f098280f07b92b060",
      "function": "transferOwnership(address)",
      "arguments": [
        "0xE9B7aB8e367bE5AC0e0c865136f1907bd73df53e"
      ],
      "transaction": {
        "from": "0xaa0cab9826f714a7be8fac8fc98e87fc27a54512",
        "to": "0x2ade96633ee51400e60de00f098280f07b92b060",
        "gas": "0x108b9",
        "value": "0x0",
        "input": "0xf2fde38b000000000000000000000000e9b7ab8e367be5ac0e0c865136f1907bd73df53e",
        "nonce": "0x2c",
        "chainId": "0x1"
      },
      "additionalContracts": [],
      "isFixedGasLimit": false
    },
    {
      "hash": "0x8b13d5f38523061ede9572b74d4545d6a6d4499a8ab05826019a4dea15526b30",
      "transactionType": "CALL",
      "contractName": null,
      "contractAddress": "0xd8f13c7f3e0c4139d1905914a99f2e9f77a4ad37",
      "function": "transferOwnership(address)",
      "arguments": [
        "0xE9B7aB8e367bE5AC0e0c865136f1907bd73df53e"
      ],
      "transaction": {
        "from": "0xaa0cab9826f714a7be8fac8fc98e87fc27a54512",
        "to": "0xd8f13c7f3e0c4139d1905914a99f2e9f77a4ad37",
        "gas": "0x109ee",
        "value": "0x0",
        "input": "0xf2fde38b000000000000000000000000e9b7ab8e367be5ac0e0c865136f1907bd73df53e",
        "nonce": "0x2d",
        "chainId": "0x1"
      },
      "additionalContracts": [],
      "isFixedGasLimit": false
    },
    {
      "hash": "0x448148acfe0aa43b5df92eef9726a4d39588bb8e7d02e39eeca01bf67298256c",
      "transactionType": "CALL",
      "contractName": null,
      "contractAddress": "0xeb00fb134699634215ebf5ea3a4d6ff3872a5b34",
      "function": "transferOwnership(address)",
      "arguments": [
        "0xE9B7aB8e367bE5AC0e0c865136f1907bd73df53e"
      ],
      "transaction": {
        "from": "0xaa0cab9826f714a7be8fac8fc98e87fc27a54512",
        "to": "0xeb00fb134699634215ebf5ea3a4d6ff3872a5b34",
        "gas": "0x117aa",
        "value": "0x0",
        "input": "0xf2fde38b000000000000000000000000e9b7ab8e367be5ac0e0c865136f1907bd73df53e",
        "nonce": "0x2e",
        "chainId": "0x1"
      },
      "additionalContracts": [],
      "isFixedGasLimit": false
    },
    {
      "hash": "0xfc87d0a80fc11b2e2f18edb3121fcd8e27cadc5e13af503af9bbaedfaa33c582",
      "transactionType": "CALL",
      "contractName": null,
      "contractAddress": "0xf00964d5f5fb0a4d4afea0999843da31bbe9a7af",
      "function": "transferOwnership(address)",
      "arguments": [
        "0xE9B7aB8e367bE5AC0e0c865136f1907bd73df53e"
      ],
      "transaction": {
        "from": "0xaa0cab9826f714a7be8fac8fc98e87fc27a54512",
        "to": "0xf00964d5f5fb0a4d4afea0999843da31bbe9a7af",
        "gas": "0x1192d",
        "value": "0x0",
        "input": "0xf2fde38b000000000000000000000000e9b7ab8e367be5ac0e0c865136f1907bd73df53e",
        "nonce": "0x2f",
        "chainId": "0x1"
      },
      "additionalContracts": [],
      "isFixedGasLimit": false
    },
    {
      "hash": "0x3afb34122fbee966c82abd1f2771d157abd5a680dd24cd901cc5e63cb60b66b5",
      "transactionType": "CALL",
      "contractName": null,
      "contractAddress": "0xad9b32272376774d18f386a7676bd06d7e33c647",
      "function": "transferOwnership(address)",
      "arguments": [
        "0xE9B7aB8e367bE5AC0e0c865136f1907bd73df53e"
      ],
      "transaction": {
        "from": "0xaa0cab9826f714a7be8fac8fc98e87fc27a54512",
        "to": "0xad9b32272376774d18f386a7676bd06d7e33c647",
        "gas": "0x107ef",
        "value": "0x0",
        "input": "0xf2fde38b000000000000000000000000e9b7ab8e367be5ac0e0c865136f1907bd73df53e",
        "nonce": "0x30",
        "chainId": "0x1"
      },
      "additionalContracts": [],
      "isFixedGasLimit": false
    },
    {
      "hash": "0xb2b35d7dfdfc2229f8a2e0ca27f10081dffba837a7432990c1cf8496fb6d14d7",
      "transactionType": "CALL",
      "contractName": null,
      "contractAddress": "0x514553eacfcb91e05db0a5e9b09d69d7e9cbaf20",
      "function": "transferOwnership(address)",
      "arguments": [
        "0xE9B7aB8e367bE5AC0e0c865136f1907bd73df53e"
      ],
      "transaction": {
        "from": "0xaa0cab9826f714a7be8fac8fc98e87fc27a54512",
        "to": "0x514553eacfcb91e05db0a5e9b09d69d7e9cbaf20",
        "gas": "0x10679",
        "value": "0x0",
        "input": "0xf2fde38b000000000000000000000000e9b7ab8e367be5ac0e0c865136f1907bd73df53e",
        "nonce": "0x31",
        "chainId": "0x1"
      },
      "additionalContracts": [],
      "isFixedGasLimit": false
    },
    {
      "hash": "0x174b003e9ad6f91da6017d0b8579760f388c3112f716f0ca09efe956a213bd99",
      "transactionType": "CALL",
      "contractName": "POLAccumulator",
      "contractAddress": "0x17215f0dfa5e97c33c025e0560eeddffad87b7ca",
      "function": "transferOwnership(address)",
      "arguments": [
        "0xE9B7aB8e367bE5AC0e0c865136f1907bd73df53e"
      ],
      "transaction": {
        "from": "0xaa0cab9826f714a7be8fac8fc98e87fc27a54512",
        "to": "0x17215f0dfa5e97c33c025e0560eeddffad87b7ca",
        "gas": "0x107e5",
        "value": "0x0",
        "input": "0xf2fde38b000000000000000000000000e9b7ab8e367be5ac0e0c865136f1907bd73df53e",
        "nonce": "0x32",
        "chainId": "0x1"
      },
      "additionalContracts": [],
      "isFixedGasLimit": false
    }
  ],
  "receipts": [
    {
      "status": "0x1",
      "cumulativeGasUsed": "0x1a47a7d",
      "logs": [
        {
          "address": "0x17215f0dfa5e97c33c025e0560eeddffad87b7ca",
          "topics": [
            "0x8be0079c531659141344cd1fd0a4f28419497f9722a3daafe3b4186f6b6457e0",
            "0x0000000000000000000000000000000000000000000000000000000000000000",
            "0x000000000000000000000000aa0cab9826f714a7be8fac8fc98e87fc27a54512"
          ],
          "data": "0x",
          "blockHash": "0x14486e171cfdb2ba5835d13706be660b25904d27188bed4467f846fa90af1ed0",
          "blockNumber": "0x17a94e1",
          "blockTimestamp": "0x69d1d48b",
          "transactionHash": "0x4ef57b3425ee3a3b2f4817dfcd5b0017f07e31645705fc277695e920e36e9dc1",
          "transactionIndex": "0x190",
          "logIndex": "0x4d4",
          "removed": false
        }
      ],
      "logsBloom": "0x00000100000000000000000000000000000000000000000000800000000000000000000000000000000000000000000000000000000000000000000000000000000000000000000000000000000000000001000000000800000000000000000000000000020000000004000000000800000000000000000000000000000000400000000000000000002000000000000000000000000000000000000000000000000000000000020000000000000000000000000000000000000000000000000000000000000000000000000000000000000000000000000000000000000020000000000000000000000000000000000000000000000000010000000000000000",
      "type": "0x2",
      "transactionHash": "0x4ef57b3425ee3a3b2f4817dfcd5b0017f07e31645705fc277695e920e36e9dc1",
      "transactionIndex": "0x190",
      "blockHash": "0x14486e171cfdb2ba5835d13706be660b25904d27188bed4467f846fa90af1ed0",
      "blockNumber": "0x17a94e1",
      "gasUsed": "0x2534f1",
      "effectiveGasPrice": "0x4b2f701",
      "from": "0xaa0cab9826f714a7be8fac8fc98e87fc27a54512",
      "to": null,
      "contractAddress": "0x17215f0dfa5e97c33c025e0560eeddffad87b7ca"
    },
    {
      "status": "0x1",
      "cumulativeGasUsed": "0x20adf97",
      "logs": [
        {
          "address": "0x2ade96633ee51400e60de00f098280f07b92b060",
          "topics": [
            "0x68ed3b38c2f0d62db783d9c67eaf2c4af5a242f77c7280ef00694036995009f0",
            "0x000000000000000000000000d8f13c7f3e0c4139d1905914a99f2e9f77a4ad37"
          ],
          "data": "0x0000000000000000000000000000000000000000000000000000000000000001",
          "blockHash": "0xd9ba4aa2c7f0417b66bbaeaadad6194f6daecfbef7eca6de6c15158771291e56",
          "blockNumber": "0x17a94e2",
          "blockTimestamp": "0x69d1d497",
          "transactionHash": "0xc8326aeb0f55c11b48cd50476d4bb78ba36fb242ccf72907a344e2e95c7692ec",
          "transactionIndex": "0x89",
          "logIndex": "0x1449",
          "removed": false
        }
      ],
      "logsBloom": "0x00000000000000000000010000000000000000000000000000000000000000000000000000000000010000000000000000000000000000000000000000000000000000001000000000000000000000000000000000000000000000000000000000000000000000000000000000000000000000000000000000000000000000000000000000000000000000000100200000000000000000000000000000000000000020000000000000000000000000000000400000200000000000000000000000000000000000000000000000000000000000000000000000000000000000000000000000200000000000000000000000000000000000000000000000000000",
      "type": "0x2",
      "transactionHash": "0xc8326aeb0f55c11b48cd50476d4bb78ba36fb242ccf72907a344e2e95c7692ec",
      "transactionIndex": "0x89",
      "blockHash": "0xd9ba4aa2c7f0417b66bbaeaadad6194f6daecfbef7eca6de6c15158771291e56",
      "blockNumber": "0x17a94e2",
      "gasUsed": "0xc2a7",
      "effectiveGasPrice": "0x4e380f1",
      "from": "0xaa0cab9826f714a7be8fac8fc98e87fc27a54512",
      "to": "0x2ade96633ee51400e60de00f098280f07b92b060",
      "contractAddress": null
    },
    {
      "status": "0x1",
      "cumulativeGasUsed": "0x282a819",
      "logs": [
        {
          "address": "0x2ade96633ee51400e60de00f098280f07b92b060",
          "topics": [
            "0x8601fb6b43cf244c5828073ea9e16745bc09e755520a6a80cecae662b31db528"
          ],
          "data": "0x",
          "blockHash": "0xf0c52f567f8551c93c33c14e397dc96ec059cbfe4ea771ed5398220545a3c286",
          "blockNumber": "0x17a94e3",
          "blockTimestamp": "0x69d1d4a3",
          "transactionHash": "0x0cfcbcdf180edcecb9ee4693d52c66e8cc67367fdec2a523184b9d114b06ecce",
          "transactionIndex": "0x80",
          "logIndex": "0x2033",
          "removed": false
        }
      ],
      "logsBloom": "0x08000000000000000000000000000000000000000000000000000000000000000000000000000000000000000000000000000000000000000000000000100000000000001000000000000000000000000000000000000000000000000000000000000000000000000000000000000000000000000000000000000000000000000000000000000000000000000000000000000000000000000000000000000000000000000000000000000000000000000000000000200000000000000000000000000000000000000000000000000000000000000000000000000000000000000000000000200000000000000000000000000000000000000000000000040000",
      "type": "0x2",
      "transactionHash": "0x0cfcbcdf180edcecb9ee4693d52c66e8cc67367fdec2a523184b9d114b06ecce",
      "transactionIndex": "0x80",
      "blockHash": "0xf0c52f567f8551c93c33c14e397dc96ec059cbfe4ea771ed5398220545a3c286",
      "blockNumber": "0x17a94e3",
      "gasUsed": "0xb7aa",
      "effectiveGasPrice": "0x4fd160f",
      "from": "0xaa0cab9826f714a7be8fac8fc98e87fc27a54512",
      "to": "0x2ade96633ee51400e60de00f098280f07b92b060",
      "contractAddress": null
    },
    {
      "status": "0x1",
      "cumulativeGasUsed": "0x3355a97",
      "logs": [
        {
          "address": "0xf00964d5f5fb0a4d4afea0999843da31bbe9a7af",
          "topics": [
            "0x7251e8fe7f0d4d38f252508cef8fb7b3b4e907bb3b7339106e305d0a06efd248",
            "0xce503965a45eebb3f79f2a11ffe003b4591a0aa57b117e4f286a5527021ce6f6"
          ],
          "data": "0x0000000000000000000000000000000000000000000000000000000069d477bb0000000000000000000000000000000000000000000000000000000069ddb23b",
          "blockHash": "0x4b6698bf9c5e7d7d40d2b146239f1052aa887992760f2396a84db9f39f94df5e",
          "blockNumber": "0x17a94e5",
          "blockTimestamp": "0x69d1d4bb",
          "transactionHash": "0x3bc5066490a0e2339b37766c5b1b3d82b8486782aa7c7f15b33a249d75bbf0d7",
          "transactionIndex": "0x19b",
          "logIndex": "0x1b40",
          "removed": false
        },
        {
          "address": "0xf00964d5f5fb0a4d4afea0999843da31bbe9a7af",
          "topics": [
            "0x63ecc053fbf292e14c0e3926e2730df8c2aae221422da29872b0ec96060f2936",
            "0x000000000000000000000000fe2e5b534cfc3b35773aa26a73bef16b028b0268"
          ],
          "data": "0x0000000000000000000000000000000000000000000000000000000069d477bb",
          "blockHash": "0x4b6698bf9c5e7d7d40d2b146239f1052aa887992760f2396a84db9f39f94df5e",
          "blockNumber": "0x17a94e5",
          "blockTimestamp": "0x69d1d4bb",
          "transactionHash": "0x3bc5066490a0e2339b37766c5b1b3d82b8486782aa7c7f15b33a249d75bbf0d7",
          "transactionIndex": "0x19b",
          "logIndex": "0x1b41",
          "removed": false
        }
      ],
      "logsBloom": "0x00000000020000000000000000000000000000000000000000000040000000000000000040000000000000000000000000000000000200000000000000000004000000000000000000000000000000000000000000000000000000000800021008000000000000000000000000000008000000000000000000000000000000000000000000000000000000000000000000000000000000000000000000000000000000000000000020000000000000000000000000000000000000800000000000000000000000000000000000000000000000000000000000000000000000000000001000000000000000000000000000000000000000000000010000000000",
      "type": "0x2",
      "transactionHash": "0x3bc5066490a0e2339b37766c5b1b3d82b8486782aa7c7f15b33a249d75bbf0d7",
      "transactionIndex": "0x19b",
      "blockHash": "0x4b6698bf9c5e7d7d40d2b146239f1052aa887992760f2396a84db9f39f94df5e",
      "blockNumber": "0x17a94e5",
      "gasUsed": "0x119a6",
      "effectiveGasPrice": "0x51c9e68",
      "from": "0xaa0cab9826f714a7be8fac8fc98e87fc27a54512",
      "to": "0xf00964d5f5fb0a4d4afea0999843da31bbe9a7af",
      "contractAddress": null
    },
    {
      "status": "0x1",
      "cumulativeGasUsed": "0x9adf6a",
      "logs": [
        {
          "address": "0x626644523d34b84818df602c991b4a06789c4819",
          "topics": [
            "0x7251e8fe7f0d4d38f252508cef8fb7b3b4e907bb3b7339106e305d0a06efd248",
            "0xce503965a45eebb3f79f2a11ffe003b4591a0aa57b117e4f286a5527021ce6f6"
          ],
          "data": "0x0000000000000000000000000000000000000000000000000000000069d477c70000000000000000000000000000000000000000000000000000000069ddb247",
          "blockHash": "0x77c29d4b12c4d3e32df9513ce25090157c5c3c0db22cbea7b05bc40a790a357f",
          "blockNumber": "0x17a94e6",
          "blockTimestamp": "0x69d1d4c7",
          "transactionHash": "0xa290f76a01fff43f42b2c8084a120755e56adfb8be55d96930d5ee24f619a6b7",
          "transactionIndex": "0x5e",
          "logIndex": "0xad",
          "removed": false
        },
        {
          "address": "0x626644523d34b84818df602c991b4a06789c4819",
          "topics": [
            "0x04f42b8791a8f294165d9e93123172486c29317d7ebfdb9259eb51b3581f60e3"
          ],
          "data": "0x000000000000000000000000fe2e5b534cfc3b35773aa26a73bef16b028b02680000000000000000000000000000000000000000000000000000000069d477c7",
          "blockHash": "0x77c29d4b12c4d3e32df9513ce25090157c5c3c0db22cbea7b05bc40a790a357f",
          "blockNumber": "0x17a94e6",
          "blockTimestamp": "0x69d1d4c7",
          "transactionHash": "0xa290f76a01fff43f42b2c8084a120755e56adfb8be55d96930d5ee24f619a6b7",
          "transactionIndex": "0x5e",
          "logIndex": "0xae",
          "removed": false
        }
      ],
      "logsBloom": "0x00000000000000000000000000000000000000000000000000000040000000000000000040000000000000000000000000000000000000000000000000000004010000000000000000000000000000000000000000000000000000000000000008000000080000000000000000000000000000002000000000000000000000000000000000000000000000000000000000000000000000000000000000000000000000000000000020040000000000000000000000000000000000000000000000000000000000000000000000000000000000000000000000000000000000000008000000000000000000000200000000000000000000000000010000000000",
      "type": "0x2",
      "transactionHash": "0xa290f76a01fff43f42b2c8084a120755e56adfb8be55d96930d5ee24f619a6b7",
      "transactionIndex": "0x5e",
      "blockHash": "0x77c29d4b12c4d3e32df9513ce25090157c5c3c0db22cbea7b05bc40a790a357f",
      "blockNumber": "0x17a94e6",
      "gasUsed": "0x121d4",
      "effectiveGasPrice": "0x5a4d9cb",
      "from": "0xaa0cab9826f714a7be8fac8fc98e87fc27a54512",
      "to": "0x626644523d34b84818df602c991b4a06789c4819",
      "contractAddress": null
    },
    {
      "status": "0x1",
      "cumulativeGasUsed": "0x3606aa3",
      "logs": [
        {
          "address": "0x626644523d34b84818df602c991b4a06789c4819",
          "topics": [
            "0x38d16b8cac22d99fc7c124b9cd0de2d3fa1faef420bfe791d8c362d765e22700",
            "0x000000000000000000000000aa0cab9826f714a7be8fac8fc98e87fc27a54512",
            "0x000000000000000000000000e9b7ab8e367be5ac0e0c865136f1907bd73df53e"
          ],
          "data": "0x",
          "blockHash": "0x6715b78ec854b59d52daf330f02fc59f994072a7cca3248d7d4768bdad33e852",
          "blockNumber": "0x17a94e8",
          "blockTimestamp": "0x69d1d4df",
          "transactionHash": "0x7c8f6c6d72ddbcdcd828ad63f969270f5bac1d2edb4c2d07c23990582077695a",
          "transactionIndex": "0x11c",
          "logIndex": "0x1bfb",
          "removed": false
        }
      ],
      "logsBloom": "0x00000100000000000000000000000000000000000000000000000000000000000000000000000000000000000000000000000000000000000000000000000000010000000000000000000000000000000000000000000800000000000000000000000000000000000000000000000000000800002000000000000000000000000001000000000000002000000000000000000000000000000000000000000000000000000000020000000000000000000000000000000000000000000000000000002000000040000000400000000000000000000000000000000000000000000008000000000000000000000000000000000000000000000000000000000000",
      "type": "0x2",
      "transactionHash": "0x7c8f6c6d72ddbcdcd828ad63f969270f5bac1d2edb4c2d07c23990582077695a",
      "transactionIndex": "0x11c",
      "blockHash": "0x6715b78ec854b59d52daf330f02fc59f994072a7cca3248d7d4768bdad33e852",
      "blockNumber": "0x17a94e8",
      "gasUsed": "0xc263",
      "effectiveGasPrice": "0x4b856e0",
      "from": "0xaa0cab9826f714a7be8fac8fc98e87fc27a54512",
      "to": "0x626644523d34b84818df602c991b4a06789c4819",
      "contractAddress": null
    },
    {
      "status": "0x1",
      "cumulativeGasUsed": "0x1bab99f",
      "logs": [
        {
          "address": "0xfe2e5b534cfc3b35773aa26a73bef16b028b0268",
          "topics": [
            "0x38d16b8cac22d99fc7c124b9cd0de2d3fa1faef420bfe791d8c362d765e22700",
            "0x000000000000000000000000aa0cab9826f714a7be8fac8fc98e87fc27a54512",
            "0x000000000000000000000000e9b7ab8e367be5ac0e0c865136f1907bd73df53e"
          ],
          "data": "0x",
          "blockHash": "0xe9a91297468bbf860c7a2d37a86d5b2eb2a00cf6f852f77e4a4baee202877d24",
          "blockNumber": "0x17a94ec",
          "blockTimestamp": "0x69d1d51b",
          "transactionHash": "0x127d4d8e8c36c259380fb7bae3c10890576e6a8bf1dad867e1f6a760bbd3b3c4",
          "transactionIndex": "0x1c8",
          "logIndex": "0x1b0",
          "removed": false
        }
      ],
      "logsBloom": "0x00000100000000000000000000000000000000000000000000000000000000000000000000000000000000000000000000000000000000000000000000000000000000000000000000000000000000000000000000000800000000000000000000000000000000000000000000000000040800000000000000000000000000000001000000000000002000000000000000000000000000000000000000000000000000000000020000000000000000000000000000000000000000000000000000002000000040000000400000000000000000000000000000000000000000000004000000000000000000000000000000000000000000000000000040000000",
      "type": "0x2",
      "transactionHash": "0x127d4d8e8c36c259380fb7bae3c10890576e6a8bf1dad867e1f6a760bbd3b3c4",
      "transactionIndex": "0x1c8",
      "blockHash": "0xe9a91297468bbf860c7a2d37a86d5b2eb2a00cf6f852f77e4a4baee202877d24",
      "blockNumber": "0x17a94ec",
      "gasUsed": "0xbedc",
      "effectiveGasPrice": "0x5b706b2",
      "from": "0xaa0cab9826f714a7be8fac8fc98e87fc27a54512",
      "to": "0xfe2e5b534cfc3b35773aa26a73bef16b028b0268",
      "contractAddress": null
    },
    {
      "status": "0x1",
      "cumulativeGasUsed": "0x27831d8",
      "logs": [
        {
          "address": "0x2ade96633ee51400e60de00f098280f07b92b060",
          "topics": [
            "0x38d16b8cac22d99fc7c124b9cd0de2d3fa1faef420bfe791d8c362d765e22700",
            "0x000000000000000000000000aa0cab9826f714a7be8fac8fc98e87fc27a54512",
            "0x000000000000000000000000e9b7ab8e367be5ac0e0c865136f1907bd73df53e"
          ],
          "data": "0x",
          "blockHash": "0xd666c5c7f4e1afeba6a66535764a255c5fe5e4401e66e3d3d69205b244f2e248",
          "blockNumber": "0x17a94ef",
          "blockTimestamp": "0x69d1d53f",
          "transactionHash": "0x14232d0257b16a6342ad21b683a24e9ed3ef5b6bfffccaeec27f5a6e54d39d06",
          "transactionIndex": "0x1a2",
          "logIndex": "0x67d",
          "removed": false
        }
      ],
      "logsBloom": "0x00000100000000000000000000000000000000000000000000000000000000000000000000000000000000000000000000000000000000000000000000000000000000001000000000000000000000000000000000000800000000000000000000000000000000000000000000000000000800000000000000000000000000000001000000000000002000000000000000000000000000000000000000000000000000000000020000000000000000000000000000200000000000000000000000002000000040000000400000000000000000000000000000000000000000000000000000200000000000000000000000000000000000000000000000000000",
      "type": "0x2",
      "transactionHash": "0x14232d0257b16a6342ad21b683a24e9ed3ef5b6bfffccaeec27f5a6e54d39d06",
      "transactionIndex": "0x1a2",
      "blockHash": "0xd666c5c7f4e1afeba6a66535764a255c5fe5e4401e66e3d3d69205b244f2e248",
      "blockNumber": "0x17a94ef",
      "gasUsed": "0xbfa8",
      "effectiveGasPrice": "0x5406870",
      "from": "0xaa0cab9826f714a7be8fac8fc98e87fc27a54512",
      "to": "0x2ade96633ee51400e60de00f098280f07b92b060",
      "contractAddress": null
    },
    {
      "status": "0x1",
      "cumulativeGasUsed": "0x3725720",
      "logs": [
        {
          "address": "0xd8f13c7f3e0c4139d1905914a99f2e9f77a4ad37",
          "topics": [
            "0x38d16b8cac22d99fc7c124b9cd0de2d3fa1faef420bfe791d8c362d765e22700",
            "0x000000000000000000000000aa0cab9826f714a7be8fac8fc98e87fc27a54512",
            "0x000000000000000000000000e9b7ab8e367be5ac0e0c865136f1907bd73df53e"
          ],
          "data": "0x",
          "blockHash": "0x3730dac93b05441bbfa5733d4f8314716cd940e3ea6c7d69a3f8b4263b49b4f6",
          "blockNumber": "0x17a94f1",
          "blockTimestamp": "0x69d1d557",
          "transactionHash": "0x8b13d5f38523061ede9572b74d4545d6a6d4499a8ab05826019a4dea15526b30",
          "transactionIndex": "0x187",
          "logIndex": "0x2435",
          "removed": false
        }
      ],
      "logsBloom": "0x00000100000000000000000000000000000000000000000000000000000000000000000000000000001000000000000000000000000000000000000080000000000000000000000000000000000000000000000000000800000000000000000000000000000000000000000000000000000800000000000000000000000000000001000000000000002000020000000000000000000000000000000000000000000000000000020000000000000000000000000000000000000000000000000000002000000040000000400000000000000000000000000000000000000000000000000000000000000000000000000000000000000000000000000000000000",
      "type": "0x2",
      "transactionHash": "0x8b13d5f38523061ede9572b74d4545d6a6d4499a8ab05826019a4dea15526b30",
      "transactionIndex": "0x187",
      "blockHash": "0x3730dac93b05441bbfa5733d4f8314716cd940e3ea6c7d69a3f8b4263b49b4f6",
      "blockNumber": "0x17a94f1",
      "gasUsed": "0xc088",
      "effectiveGasPrice": "0x4f75d04",
      "from": "0xaa0cab9826f714a7be8fac8fc98e87fc27a54512",
      "to": "0xd8f13c7f3e0c4139d1905914a99f2e9f77a4ad37",
      "contractAddress": null
    },
    {
      "status": "0x1",
      "cumulativeGasUsed": "0x15b063f",
      "logs": [
        {
          "address": "0xeb00fb134699634215ebf5ea3a4d6ff3872a5b34",
          "topics": [
            "0x38d16b8cac22d99fc7c124b9cd0de2d3fa1faef420bfe791d8c362d765e22700",
            "0x000000000000000000000000aa0cab9826f714a7be8fac8fc98e87fc27a54512",
            "0x000000000000000000000000e9b7ab8e367be5ac0e0c865136f1907bd73df53e"
          ],
          "data": "0x",
          "blockHash": "0x73934c804e042f130fc36f16d656cad94194ec5c66ebf48553e9aacceda1481e",
          "blockNumber": "0x17a94f2",
          "blockTimestamp": "0x69d1d563",
          "transactionHash": "0x448148acfe0aa43b5df92eef9726a4d39588bb8e7d02e39eeca01bf67298256c",
          "transactionIndex": "0xfa",
          "logIndex": "0x7e2",
          "removed": false
        }
      ],
      "logsBloom": "0x00000100000000000000000000000000000000000000000000000000000000000000000004000000000000000000000000000004000000000000000000000000000000000000000000020000000000000000000000000800000000000000000000000000000000000000000000000000000800000000000000000000000000000001000000000000002000000000000000000000000000000000000000000000000000000000020000000000000000000000000000000000000000000000000000002000000040000000400000000000000000000000000000000000000000000000000000000000000000000000000000000000000000000000000000000000",
      "type": "0x2",
      "transactionHash": "0x448148acfe0aa43b5df92eef9726a4d39588bb8e7d02e39eeca01bf67298256c",
      "transactionIndex": "0xfa",
      "blockHash": "0x73934c804e042f130fc36f16d656cad94194ec5c66ebf48553e9aacceda1481e",
      "blockNumber": "0x17a94f2",
      "gasUsed": "0xbf3a",
      "effectiveGasPrice": "0x5952d9a",
      "from": "0xaa0cab9826f714a7be8fac8fc98e87fc27a54512",
      "to": "0xeb00fb134699634215ebf5ea3a4d6ff3872a5b34",
      "contractAddress": null
    },
    {
      "status": "0x1",
      "cumulativeGasUsed": "0x1fec1f3",
      "logs": [
        {
          "address": "0xf00964d5f5fb0a4d4afea0999843da31bbe9a7af",
          "topics": [
            "0x38d16b8cac22d99fc7c124b9cd0de2d3fa1faef420bfe791d8c362d765e22700",
            "0x000000000000000000000000aa0cab9826f714a7be8fac8fc98e87fc27a54512",
            "0x000000000000000000000000e9b7ab8e367be5ac0e0c865136f1907bd73df53e"
          ],
          "data": "0x",
          "blockHash": "0xa801053754116f3e63c377849d4e807e6a5c038d2988c2529570354d81553e57",
          "blockNumber": "0x17a94f3",
          "blockTimestamp": "0x69d1d56f",
          "transactionHash": "0xfc87d0a80fc11b2e2f18edb3121fcd8e27cadc5e13af503af9bbaedfaa33c582",
          "transactionIndex": "0xcd",
          "logIndex": "0x91f",
          "removed": false
        }
      ],
      "logsBloom": "0x00000100000000000000000000000000000000000000000000000000000000000000000000000000000000000000000000000000000000000000000000000000000000000000000000000000000000000000000000000800000000000800001000000000000000000000000000000008000800000000000000000000000000000001000000000000002000000000000000000000000000000000000000000000000000000000020000000000000000000000000000000000000000000000000000002000000040000000400000000000000000000000000000000000000000000000000000000000000000000000000000000000000000000000000000000000",
      "type": "0x2",
      "transactionHash": "0xfc87d0a80fc11b2e2f18edb3121fcd8e27cadc5e13af503af9bbaedfaa33c582",
      "transactionIndex": "0xcd",
      "blockHash": "0xa801053754116f3e63c377849d4e807e6a5c038d2988c2529570354d81553e57",
      "blockNumber": "0x17a94f3",
      "gasUsed": "0xc042",
      "effectiveGasPrice": "0x5843dd8",
      "from": "0xaa0cab9826f714a7be8fac8fc98e87fc27a54512",
      "to": "0xf00964d5f5fb0a4d4afea0999843da31bbe9a7af",
      "contractAddress": null
    },
    {
      "status": "0x1",
      "cumulativeGasUsed": "0x122a603",
      "logs": [
        {
          "address": "0xad9b32272376774d18f386a7676bd06d7e33c647",
          "topics": [
            "0x38d16b8cac22d99fc7c124b9cd0de2d3fa1faef420bfe791d8c362d765e22700",
            "0x000000000000000000000000aa0cab9826f714a7be8fac8fc98e87fc27a54512",
            "0x000000000000000000000000e9b7ab8e367be5ac0e0c865136f1907bd73df53e"
          ],
          "data": "0x",
          "blockHash": "0x8573cb36537b97faa228e192af943ebaa67ad074cf6fe1ab42b89ab7d3cd487c",
          "blockNumber": "0x17a94f4",
          "blockTimestamp": "0x69d1d57b",
          "transactionHash": "0x3afb34122fbee966c82abd1f2771d157abd5a680dd24cd901cc5e63cb60b66b5",
          "transactionIndex": "0x155",
          "logIndex": "0x120",
          "removed": false
        }
      ],
      "logsBloom": "0x00000100000000000000000000000000000000000000000000000000000000000000000000010000000000000000000000000000000000000000000000000000000000000000000000000000000000800000000000000880000000000000000000000000000000000000000000000000000800000000000000000000000000000001000000000000002000000000000000000000000000000000000000000000000000000000020000000000000000000000000000000000000000000000000000002000000040000000400000000000000000000000000000000000000000000000000000000000000000000000000000000000000000000000000000000000",
      "type": "0x2",
      "transactionHash": "0x3afb34122fbee966c82abd1f2771d157abd5a680dd24cd901cc5e63cb60b66b5",
      "transactionIndex": "0x155",
      "blockHash": "0x8573cb36537b97faa228e192af943ebaa67ad074cf6fe1ab42b89ab7d3cd487c",
      "blockNumber": "0x17a94f4",
      "gasUsed": "0xbf16",
      "effectiveGasPrice": "0x6248613",
      "from": "0xaa0cab9826f714a7be8fac8fc98e87fc27a54512",
      "to": "0xad9b32272376774d18f386a7676bd06d7e33c647",
      "contractAddress": null
    },
    {
      "status": "0x1",
      "cumulativeGasUsed": "0x9e01bd",
      "logs": [
        {
          "address": "0x514553eacfcb91e05db0a5e9b09d69d7e9cbaf20",
          "topics": [
            "0x38d16b8cac22d99fc7c124b9cd0de2d3fa1faef420bfe791d8c362d765e22700",
            "0x000000000000000000000000aa0cab9826f714a7be8fac8fc98e87fc27a54512",
            "0x000000000000000000000000e9b7ab8e367be5ac0e0c865136f1907bd73df53e"
          ],
          "data": "0x",
          "blockHash": "0xe7ddf383946daf41138a93dde8272bc3fba73df53fc7b2946f2b7350cabb2fa2",
          "blockNumber": "0x17a94f5",
          "blockTimestamp": "0x69d1d587",
          "transactionHash": "0xb2b35d7dfdfc2229f8a2e0ca27f10081dffba837a7432990c1cf8496fb6d14d7",
          "transactionIndex": "0xc6",
          "logIndex": "0xe3",
          "removed": false
        }
      ],
      "logsBloom": "0x00000100000000000000000000000000000000000000000000000000000000000000000000000000000000000000000000000000000000000000000000000000000000000000000000000000000000000000000000000800000000000000000000000000000000200000000000000000000800000000000000000000000000000001000000000000002000000000000000000000000000000000000000000000000000000000020000000000000000000080000000000000000000000000000000002000000040000000400000000000000000000000000000000000000000000000000000000000000000000000000000000000000000010000000000000000",
      "type": "0x2",
      "transactionHash": "0xb2b35d7dfdfc2229f8a2e0ca27f10081dffba837a7432990c1cf8496fb6d14d7",
      "transactionIndex": "0xc6",
      "blockHash": "0xe7ddf383946daf41138a93dde8272bc3fba73df53fc7b2946f2b7350cabb2fa2",
      "blockNumber": "0x17a94f5",
      "gasUsed": "0xbe07",
      "effectiveGasPrice": "0x5e1f681",
      "from": "0xaa0cab9826f714a7be8fac8fc98e87fc27a54512",
      "to": "0x514553eacfcb91e05db0a5e9b09d69d7e9cbaf20",
      "contractAddress": null
    },
    {
      "status": "0x1",
      "cumulativeGasUsed": "0xac23bc",
      "logs": [
        {
          "address": "0x17215f0dfa5e97c33c025e0560eeddffad87b7ca",
          "topics": [
            "0x38d16b8cac22d99fc7c124b9cd0de2d3fa1faef420bfe791d8c362d765e22700",
            "0x000000000000000000000000aa0cab9826f714a7be8fac8fc98e87fc27a54512",
            "0x000000000000000000000000e9b7ab8e367be5ac0e0c865136f1907bd73df53e"
          ],
          "data": "0x",
          "blockHash": "0x4c09b865410a0773f68054fff2a7f00b58e317591d6af0bb52648540bbb71fbe",
          "blockNumber": "0x17a94f6",
          "blockTimestamp": "0x69d1d593",
          "transactionHash": "0x174b003e9ad6f91da6017d0b8579760f388c3112f716f0ca09efe956a213bd99",
          "transactionIndex": "0x9d",
          "logIndex": "0x153",
          "removed": false
        }
      ],
      "logsBloom": "0x00000100000000000000000000000000000000000000000000000000000000000000000000000000000000000000000000000000000000000000000000000000000000000000000000000000000000000000000000000800000000000000000000000000000000000004000000000000000800000000000000000000000000000001000000000000002000000000000000000000000000000000000000000000000000000000020000000000000000000000000000000000000000000000000000002000000040000000400000000000000000000000000000000000000000000000000000000000000000000000000000000000000000010000000000000000",
      "type": "0x2",
      "transactionHash": "0x174b003e9ad6f91da6017d0b8579760f388c3112f716f0ca09efe956a213bd99",
      "transactionIndex": "0x9d",
      "blockHash": "0x4c09b865410a0773f68054fff2a7f00b58e317591d6af0bb52648540bbb71fbe",
      "blockNumber": "0x17a94f6",
      "gasUsed": "0xbf0f",
      "effectiveGasPrice": "0x56ffe5b",
      "from": "0xaa0cab9826f714a7be8fac8fc98e87fc27a54512",
      "to": "0x17215f0dfa5e97c33c025e0560eeddffad87b7ca",
      "contractAddress": null
    }
  ],
  "libraries": [],
  "pending": [],
  "returns": {},
  "timestamp": 1775359344438,
  "chain": 1,
  "commit": "0ee7a33"
}